:1000000000800020BD01000051D2000009D2000094
:1000100009D2000009D2000009D2000009D2000074
:1000200009D2000009D2000009D2000051D200001C
:1000300051D2000009D20000ADEE0000B1EF000087
:1000400051D2000051D2000051D2000051D2000024
:1000500051D2000051D2000051D2000051D2000014
:1000600051D2000051D2000051D2000051D2000004
:1000700051D2000051D2000051D2000051D20000F4
:1000800051D2000051D2000051D2000051D20000E4
:1000900051D2000051D2000051D2000051D20000D4
:1000A00051D2000051D2000051D2000051D20000C4
:1000B00051D2000051D2000051D2000051D20000B4
:1000C00051D2000051D2000051D2000051D20000A4
:1000D00051D2000051D2000051D2000051D2000094
:1000E00051D2000051D2000051D2000051D2000084
:1000F00051D2000009DC000051D200006DF6000072
:1001000051D2000099F7000051D2000051D20000F6
:1001100051D2000051D2000051D2000051D2000053
:1001200051D2000051D2000051D2000051D2000043
:1001300051D2000051D2000051D2000051D2000033
:1001400051D2000051D2000051D2000051D2000023
:1001500051D2000051D2000051D2000051D2000013
:1001600051D20000C9DE000051D2000051D200007F
:1001700051D2000051D2000051D2000051D20000F3
:1001800051D2000051D2000051D2000051D20000E3
:1001900051D2000051D2000051D2000051D20000D3
:1001A00051D2000051D2000051D2000051D20000C3
:1001B00051D2000051D2000051D20000564B4CF2F7
:1001C000205210B51A804DF628121A8000BF00BFC9
:1001D0000DF042F8514B4FF010621A60504A9A608D
:1001E000504ADA60504A136813F4807304D14F49BF
:1001F0000B604FF4A85313604D4B1A78110703D5C9
:100200001A7842F008021A704A4B4B492A221A7097
:100210004A4A4B4B8B4204D252F8040F43F8040B6A
:10022000F8E7484B484900228B4202D243F8042B9E
:10023000FAE74649464A002352F8230041F82300D2
:1002400001336F2BF8D1434B434A802103F8011B44
:100250009342FBD1414B3D4A1A60414B8A221A70AE
:10026000A3F5805324225A70A0221A709A7992071B
:10027000FCD59A79D406FCD43A4A937903F00C035E
:10028000082B384BF9D103221A7140225A719A79FE
:100290009006FCD5334A9179324B4906FBD5324A58
:1002A000324911600221516020221A709A7902F0BD
:1002B0000C020C2AFAD12E4B2E4A1A602E4B2F4AD2
:1002C0001A6000225A60072243F8042C2C4AC3F813
:1002D0000C2D62B60DF082FA144B1B68DA0705D5B7
:1002E00028480DF0D1F8284B284A1A60284B1B7873
:1002F0005B0609D5244C254B22689A4204D121483B
:100300000DF0C2F80023236012F04AF80CF0AAFFA7
:100310000EF0E0FFFEE700BF0E20054030800440F5
:10032000823F04000100002B10D0034014D0034092
:1003300002D0074000E00740A094FF1F78B0010002
:100340002087FF1FA094FF1FE4BBFF1F0082FF1F39
:100350000000000000E400E05FE400E008ED00E0E1
:100360000050064000400640448004400000030165
:1003700004800440C010050014E000E0FF76010096
:10038000000020204C24F2621CE00340A5C3945AD4
:1003900000F00740FFFFFFFFFFFFFFFFFFFFFFFF32
:1003A000FFFFFFFFFFFFFFFFFFFFFFFFFFFFFFFF5D
:1003B000FFFFFFFFFFFFFFFFFFFFFFFFFFFFFFFF4D
:1003C000FFFFFFFFFFFFFFFFFFFFFFFFFFFFFFFF3D
:1003D000FFFFFFFFFFFFFFFFFFFFFFFFFFFFFFFF2D
:1003E000FFFFFFFFFFFFFFFFFFFFFFFFFFFFFFFF1D
:1003F000FFFFFFFFFFFFFFFFFFFFFFFFFFFFFFFF0D
:10040000FFFFFFFFFFFFFFFFFFFFFFFFDEF9FFFF23
:1004100010B5054C237833B9044B13B10448AFF33E
:1004200000800123237010BDA094FF1F0000000076
:1004300074B00100084B10B51BB108490848AFF370
:1004400000800848036803B910BD074B002BFBD0A0
:10045000BDE81040184700BF00000000A494FF1F33
:1004600074B00100A094FF1F0000000002210148A9
:100470000EF0AABBBC8601001F4B10B45A6A136869
:10048000506819780478507A137A044201EA03011B
:100490001AD0937A03F0030309B143F0040343F045
:1004A00008039910013B91720D2B0BD8DFE803F084
:1004B0001E0719070A141E1E140A0719071ED368FF
:1004C000013BD36010BC7047937A03F0030300290B
:1004D000E7D043F00403E4E7D36810BC023BD360E9
:1004E0007047D36810BC0233D3607047D36810BC28
:1004F0000133D360704700BF5CB8FF1F1F4B10B4BF
:100500009A6A1368506819780478507A137A04420A
:1005100001EA03011AD0937A03F0030309B143F00F
:10052000040343F008039910013B91720D2B0BD883
:10053000DFE803F01E0719070A141E1E140A071924
:10054000071ED368013BD36010BC7047937A03F059
:1005500003030029E7D043F00403E4E7D36810BCA9
:10056000023BD3607047D36810BC0233D36070473E
:10057000D36810BC0133D360704700BF5CB8FF1F65
:1005800070B5044608460D4612F0BAFD23680246CF
:10059000294620465B68BDE87040184738B50446D8
:1005A00008460D4612F0ACFD2368024629465B68FA
:1005B00020469847054620460EF018FD284438BDD1
:1005C00038B505460EF062FD044628460EF00EFDD5
:1005D000204438BD30B583B005469DF81810009111
:1005E0000EF05EFD044628460EF000FD204403B0E8
:1005F00030BD00BF10B4036841681A780C78417AA6
:10060000037A0C4202EA03021AD0837A03F003034E
:100610000AB143F0040343F008039A10013B8272CD
:100620000D2B0BD8DFE803F01E0719070A141E1E56
:10063000140A0719071EC368013BC36010BC70474A
:10064000837A03F00303002AE7D043F00403E4E7CE
:10065000C36810BC023BC3607047C36810BC023360
:10066000C3607047C36810BC0133C360704700BFEC
:100670002DE9F84F1F4E0F2396F9002093FBF2F35C
:10068000002B35DD1C4DDFF880B01C4FA846DA4644
:10069000B94600242B781A4A1BF803C017F803E068
:1006A0001848A2FB0312120902EB8201A3EB81019D
:1006B000F445C9B20CD00BF0DFFD98F800301148BA
:1006C0001AF8031009F803100BF0DAFE98F800305E
:1006D00096F900200133DBB24F2B04F1010488BFEF
:1006E0000023E4B22B700F2393FBF2F39C42D1DB87
:1006F000BDE8F88F9CB7FF1FD4ACFF1FC8ABFF1F2E
:10070000CDCCCCCC5CADFF1FA4B7FF1F30B41749D4
:10071000174C0B782278174D03EB830302EB83030E
:10072000DBB25A1CD2B24F2AE85419D80020132A3F
:100730002270087012D9A3F11302D2B20120132A39
:10074000227008700AD9A3F12702D2B2132A85BFFA
:100750003B3BDAB20223032322700B7030BC70479C
:1007600000230B70237030BC704700BFA9ADFF1F82
:10077000A8ADFF1FA4B7FF1F38B5044612F0C0FC98
:10078000C0B248B1013854FA80F5013C14F8010FA9
:10079000FFF7BCFFAC42F9D138BD00BFF0B51F4A2E
:1007A0001F4C204B92E8030087B000220D0CADF8DF
:1007B0000410227000908DF8065003F150012022A1
:1007C00003F8012F8B42FBD1174E184D00233370D5
:1007D0002B7012F0B3F90746684612F091FC0446FC
:1007E00012F0ACF9124BC4F115020340B7FBF2F161
:1007F000002B02FB1172327005DB68462B70FFF78D
:10080000BBFF07B0F0BD013B63F003030133684653
:100810002B70FFF7B1FF07B0F0BD00BFB48001003F
:10082000D888FF1FA3B7FF1FA8ADFF1FA9ADFF1FEB
:100830000300008038B5134B0446A3F1140203F102
:100840003C0013F8011F02F8011F8342F9D10E4D3D
:1008500020222B4603F8012F8342FBD1204612F0C1
:100860004FFCC0B2142828BF142050B1421ED2B28F
:1008700001322046224410F8013B05F8013F904226
:10088000F9D138BDB7B7FF1FDFB7FF1F08B5034861
:10089000FFF7D0FF024B00221A7008BD0CABFF1F00
:1008A00091ADFF1F2DE9F047904203EB430628BFAF
:1008B000104676001FFA83F800FB06F6B6FBF2F648
:1008C000B8F1000F27D0154FB6B29246A7FB062706
:1008D000BF0807EB4707A6EB470703FB01F9FFB289
:1008E000062400250FE0B34213DDB9FBFAF0A8425D
:1008F0000CBF062000200135FFF708FFABB24345CF
:1009000004F1060407D2B442A4F10603EBDC05208F
:10091000F1E73846EFE7BDE8F08700BFABAAAAAA27
:10092000214B70B5D3E9004500224FF080432046AB
:10093000294610F0CBFF00BB00221C4B2046294665
:1009400010F0CEFF08BB16A3D3E9002320462946AA
:1009500010F0C6FF30B9164A164B92E80300186033
:10096000998070BD2946204611F016F8124982B2CE
:10097000BDE870400F4812F003BB22462B460F49DA
:100980000C48BDE8704012F0FBBA22462B460C49D9
:100990000848BDE8704012F0F3BA00BFAFF3008022
:1009A000000000000088C340E088FF1F00002440D2
:1009B000D48001001CACFF1FD0800100BC8001006E
:1009C000C480010070B5054611F0C0F82649044600
:1009D00011F0C2FAB0B92549204611F0BDFA00283D
:1009E0003ED12349204611F0B7FAA8B92046214943
:1009F00011F0B2FA10BB2A461F492048BDE87040EA
:100A000012F0BEBA1E4A1F491C48A2FB05329209C9
:100A1000BDE8704012F0B4BA194A1B4C1B49174884
:100A2000A2FB053292094FF47A7303FB1255A4FB23
:100A300005435B09BDE8704012F0A2BA104A144C9D
:100A400014490E48A2FB053292094FF47A7303FB56
:100A50001255A4FB0543DB08BDE8704012F090BAC4
:100A6000074A0D49D0E700BF002474490050C3472E
:100A700000401C4600007A440C8101001CACFF1FA2
:100A8000D34D6210DC8001001F85EB51EC8001002A
:100A9000CDCCCCCCFC800100E480010070B50546D3
:100AA00011F054F81E49044611F056FAA8B91D4930
:100AB000204611F051FA78BB1B49204611F04CFA40
:100AC000A8B92046194911F047FA98B92A46184999
:100AD0001848BDE8704012F053BA174A1749154834
:100AE000A2FB05329209BDE8704012F049BA124AE1
:100AF0001349F4E7104A134C13490E48A2FB053280
:100B000092094FF47A7303FB1255A4FB0543DB08EB
:100B1000BDE8704012F034BA074A0C49DFE700BF65
:100B2000002474490050C34700401C4600007A442A
:100B3000388101001CACFF1FD34D621014810100ED
:100B400024810100CDCCCCCC2C8101001C81010082
:100B500010B41B491B4C0A78531CDBB2642B08BF32
:100B600000230B70184B44F82200002203F5C870D4
:100B700053F8041F8A42B8BF0A468342F8D1134C87
:100B8000A17801EB810000EB8000800090424FF0E3
:100B9000640306DA03EB83035B0001FB03F090427E
:100BA000F8DB6478094903FB04F4944205DD097815
:100BB00003FB01F09042D8BF204610BC704700BF35
:100BC0006CABFF1FACADFF1FA8ADFF1F98ACFF1FA4
:100BD00070B5002882B02CDB2A4C2B492B4D84FBAE
:100BE0000023C417C4EBA34401FB140085FB0035AC
:100BF000C317C3EBA5154FF47A76092C06FB15062F
:100C000012DD2348FFF7B8FD012214FB02F292B275
:100C100000962B461F49204812F0B2F91E4802B038
:100C2000BDE87040FFF7A8BD1C48FFF7A5FD0122F5
:100C3000EBE7144C144A154D434284FB0316D917B5
:100C4000C1EBA64602FB163684FB0034C01785FBB9
:100C50000635C0EBA444F317C3EBA51514F1090F37
:100C60004FF47A7303FB156605DB0D48FFF784FD2F
:100C70004FF6FF72C9E70B48FFF77EFD4FF6FF7294
:100C8000C3E700BF83DE1B4340420F00D34D621019
:100C9000288A01004C8101001CACFF1F4881010023
:100CA000448101004081010010B50F4A0F4B1178BB
:100CB0000F4A104C92F9002003EBC1035B68C01A85
:100CC00002FB00F010F042FF0B4911F047F810F062
:100CD00037FB02460B462046084912F051F92046E0
:100CE000BDE81040FFF748BD44B7FF1FACABFF1F86
:100CF0002888FF1F1CACFF1F0000C8445C81010056
:100D0000F8B50A4B0A4F0B4D1888002421460F23D3
:100D100001264FF47A723C702E70FFF7C3FDFFF787
:100D2000FFFD0548BDE8F840FFF726BD60ABFF1F9B
:100D3000A8ADFF1FA9ADFF1F1CACFF1F2DE9F04F91
:100D40005F4CDFF8B4912368D9F800209A428346BB
:100D500083B0B4BF184610468A46FFF7F9FE2368F1
:100D6000142B064602DC0A2840F3A780554D564C4A
:100D7000D9F800700023092E2B702370324600F240
:100D80008580504610F0CAFA0022504B10F02CFB20
:100D900010F002FE8046384610F0C0FA00224B4B9D
:100DA00010F022FB10F0F8FD320181B292B21FFA6E
:100DB00088F01423FFF776FD454B4FF00008012221
:100DC00041461888227014234FF47A72022785F85E
:100DD0000080FFF767FD07233E482B702770FFF761
:100DE000CBFC3D4885F800802770FFF7C5FCFFF776
:100DF00097FD3A48FFF7C0FC0822032338482A70C1
:100E000023700193FFF7B8FC019B3648237085F8E7
:100E10000080FFF7B1FC3046FFF740FE2F48FFF798
:100E2000ABFC132330482B702770FFF7A5FC0A2377
:100E30002D482B702770FFF79FFC5846FFF79CFC4E
:100E40002A4B1B7883BB022350460E2723702F703A
:100E5000FFF7B8FD2148FFF78FFC03261323224834
:100E60002B702670FFF788FC0A2321482B70267010
:100E7000FFF782FCD9F800002F702670FFF7A2FD63
:100E8000164803B0BDE8F04FFFF776BCB6F5803FDB
:100E90003846D04689D31209B2F5803F4FEA181878
:100EA0004FEA1010F7D280E7074A12481770054A38
:100EB0000D231370FFF760FCC5E703B0BDE8F08FAA
:100EC00050B8FF1FA8ADFF1FA9ADFF1F00003040A5
:100ED00060ABFF1F18840100648101001CACFF1F80
:100EE000488101006C810100288A01009BADFF1F31
:100EF000748101004081010068ABFF1F2DE9F047BC
:100F00002F4D304CDFF8F0802F48304EDFF8B0A086
:100F1000DFF8B090022700232B702770FFF72CFC1E
:100F200098F800202A4B277003EBC203062258686A
:100F30002A70FFF7B9FE98F80010264A277052F879
:100F400021000D2303272B70FFF7AEFE22482770E8
:100F50000A232B70FFF710FC3378277011222A70B8
:100F60009A064CBF1D481E48FFF706FC1D4B1E4944
:100F70001A781E484FF00008032785F80080277074
:100F800011F0FEFF1948FFF7F7FB33781B060ED46C
:100F9000737813F0050F01D1BDE8F0870022032319
:100FA0002A7023701248BDE8F047FFF7E5BB1148EF
:100FB0008AF8008089F80070FFF7DEFBE8E700BFE1
:100FC000A8ADFF1FA9ADFF1F7C8101000895FF1F81
:100FD00064B7FF1F40B8FF1F84810100608F0100CC
:100FE0008C810100A6ADFF1F908101001CACFF1F8A
:100FF000B08101009C81010044B7FF1F2DE9F04141
:101000002A4E3068FFF7A4FD3568142D044613DC22
:10101000642848D9DFF8AC80254F002388F80030D9
:101020003B70B4F5803F284619D32409B4F5803FBE
:101030004FEA1010F9D212E0DFF888801C4F00232D
:10104000284688F800303B7010F068F9092CE8D881
:101050000022184B10F0C8F9240110F09DFCA2B238
:101060000E23002180B2FFF71DFC3068FFF7AAFCB9
:101070001148FFF781FB114B00214FF47A72188859
:1010800088F800100E2301243C70FFF70BFC0C487D
:10109000FFF772FBFFF744FC0748FFF76DFBBDE865
:1010A000F041FFF72BBFBDE8F08100BF50B8FF1F34
:1010B000A9ADFF1F000030401CACFF1F60ABFF1F3D
:1010C000288A0100A8ADFF1F284B1B7803F00203FC
:1010D00070B5002B3FD0264C264D274800262670A1
:1010E0002E70FFF749FB1123244823702E70FFF761
:1010F00043FB234A2E70917DC1F3C10306330620C2
:1011000012F82330207003F01F030A2B1CD01D4A55
:101110001D4B127853F83200FFF75AFD01260023C9
:101120001A4823702E70FFF727FB112313482370F2
:101130002E70FFF721FB164B2E70186806232370C4
:10114000BDE87040FFF744BD4B07E0D5114B186870
:10115000FFF73EFDE2E7064C064D0F4803F0FF02A5
:1011600022702A70FFF708FBD8E700BF70ACFF1FA2
:10117000A8ADFF1FA9ADFF1FDC810100E4810100C4
:1011800098ACFF1F44B7FF1F64B7FF1FE881010041
:1011900098B7FF1F88ADFF1FC481010038B54D4DC2
:1011A0006B7803F01002D2B16A784B49002363F3E5
:1011B00045126A700B806B78D80630D5474C627840
:1011C000D10607D59A063AD5454A1378591C322BD1
:1011D000117069D063786FF30413637038BD02F047
:1011E000FF01404A40481478404A50F834001468DF
:1011F000A0421DD12A8822F4FE5222F01F0292043E
:10120000920C1AB93A4A1278D00750D5990606D5E9
:101210002A789206C8D4364A1278D407C4D4354AFC
:10122000B2F90020002AC9D19A062C4C07D5CBE789
:10123000294C106061F345136B702180BBE72C4B88
:101240001B78DB070CD52278244902F0020202F059
:10125000FF0302BB2B789D0635D5FFF7CFFEB9E71C
:101260002378627803F00203D006DBB209D5224D61
:10127000224823492D880580D1E90001214AC2E98D
:1012800000015BB9FFF720FFFFF738FE63786FF3CB
:101290000413637038BD4A78D206E8D4FFF730FDF6
:1012A00023789907EED5EFE7FFF778FA92E70A4936
:1012B0000A88013292B2B2F5967F0A80AFD143F02C
:1012C00020036B7077E7104B10481968FFF736FD65
:1012D00080E700BF0895FF1F82ADFF1FF094FF1F3E
:1012E000D888FF1F44B7FF1F64B7FF1F20B8FF1F38
:1012F00064ABFF1F1495FF1FD6ACFF1F60ABFF1F31
:1013000088B7FF1FE088FF1F0095FF1FF0810100D5
:101310002DE9F04F83B05C4F9DF83040DFF87C81C1
:101320009DF8349088F80040132C1D4682460091A9
:1013300016463B702ED8A3465448FFF71DFA0BF112
:1013400001035FFA83FBBBF1140FF5D1B9F1010F73
:1013500020D96B1C88F800403B70A3464B48FFF730
:101360000BFA0BF101035FFA83FBBBF1140FF5D10C
:10137000B9F1020F0ED0AB1C88F800403B70A346B9
:101380004248FFF7F9F90BF101035FFA83FBBBF168
:10139000140FF5D1002E30D1009BB9F1010F03F1EC
:1013A000FF33DBB22ED9A21C5FFA82FB3D7088F8B6
:1013B00000B05AF82310364811F02CFE3448FFF7DD
:1013C000DBF96B1C3B7088F800405AF82620314945
:1013D0002F4811F0D5FD009B2D48013B0193FFF7ED
:1013E000CBF9019B9E421ABF731CDBB20023B9F1FB
:1013F000020F16D103B0BDE8F08F731EB9F1010FD3
:10140000DBB2D0D888F800403D705AF82620214938
:101410001F4811F0B5FD1E4803B0BDE8F04FFFF7BF
:10142000ABB9AA1C3A7088F800B05AF823101848D3
:1014300011F0F0FD1648FFF79FF9B9F1040FD9D16B
:10144000019B9E420BD0009B023B9E421DBF06F1BA
:1014500002095FFA89F94FEA89094FF0000903355B
:10146000EDB2132C3D7088F8004006D801340748CF
:10147000E4B2FFF781F9142CF8D188F800B03D7080
:101480005AF809200449C3E7A9ADFF1F288A0100C3
:101490001CACFF1FF4810100FC810100A8ADFF1FFF
:1014A0002DE9F041994D9A4C2B7C94F90060012B69
:1014B00040F2D88072B6EB6862B62C33582B00F23B
:1014C000A580944D6B78934A19065ED443F080034F
:1014D0000E2E53700CDD0F3EF3B20E2B5EB207D909
:1014E0000F3EF3B20E2B5EB2F5D801E00F3676B2A6
:1014F000002EFBDD884B267003F15001202203F8FB
:10150000012F9942FBD1DFF83C82844F84480026AA
:1015100088F800603E70FFF72FF9824A824B1078FE
:101520001B7888F800601844C0F1030040B2022321
:10153000B0423B707FDD0FF0F1FE02460B4600200B
:101540004FF080410EF05CFA10F0FEF940B210F05E
:10155000FDFA764910F04EFB064694F9000010F0B3
:10156000F5FA734910F046FB724910F043FB31461F
:1015700010F0F4FB0FF0E4FE02460B466E486F4994
:1015800011F0FEFC6C48FFF7F7F82B78DB073BD532
:10159000614B202103F1500203F8011F9A42FBD155
:1015A000674E2978337D94F90000664F5B4C00222A
:1015B00062F3000103F00F03297083424FF0010131
:1015C00021703A70524C44D05F48FFF7D5F822782A
:1015D000337D62F303033375344606F12C0714F8A8
:1015E000011BA01B0BF0E8FDBC42F8D16B78574CF7
:1015F0005749002243F0100362F3C71314206B70A5
:1016000022800880BDE8F081BDE8F0812B7C012BB1
:1016100023D972B63D48EB6862B62C2B0DDD01363E
:1016200076B272B60022EA6062B63A4D6B7862F327
:10163000C7136B7046E73D4E8FE7037C012B61D9E2
:1016400072B6EB6862B62C33BCBF06F1FF3676B2D9
:10165000E7E74048FFF790F8C8E772B62B48FEF777
:10166000C9FFD7E772B62B6869681A780878697A73
:101670002B7A084202EA03022CD0AB7A03F0030370
:101680000AB143F0040343F008039A10013BAA7225
:101690000D2B3FF610AF01A252F823F0FD1600000B
:1016A000F5160000ED160000F5160000B714000056
:1016B000E5160000FD160000FD160000E51600000E
:1016C000B7140000F5160000ED160000F516000036
:1016D000FD160000AB7A03F00303002AD5D043F0D7
:1016E0000403D2E7EB68023BEB60E5E6EB6802330C
:1016F000EB60E1E6EB68013BEB60DDE6EB680133B4
:10170000EB60D9E672B6FEF775FF9AE7F8B7FF1FF0
:101710009CB7FF1F0895FF1FA3B7FF1FA9ADFF1FB1
:10172000048201003CB7FF1F1695FF1F0000B44361
:101730000080BB456666E63F1CACFF1F1C820100B3
:1017400098ACFF1FA8ADFF1F2882010062ABFF1FEE
:101750001495FF1F388201002DE9F043804D814E22
:101760002B7C96F90040012B83B040F2A58072B625
:10177000EB6862B62C33582B74D87B4D6B787A4A61
:1017800019062ED443F08003032C537067DD043C0C
:10179000E3B2032B5CB2FAD8744B347003F15001FE
:1017A000202203F8012F9942FBD1DFF8D491DFF812
:1017B000D4816F480026012789F8006088F800600E
:1017C000FEF7DAFF6B4889F8006088F80070FEF7D2
:1017D000D3FF8DE8C0000223E2B204216648FFF780
:1017E00097FD2B78DB0735D5604B202103F15002A4
:1017F00003F8011F9A42FBD1604E2978337D604F78
:101800006048002262F30001C3F301132970A34270
:101810004FF001013A70017045D05B48FEF7ACFF14
:10182000337D64F305133375344606F12C0714F841
:10183000011BA01B0BF0C0FCBC42F8D16B78534CD1
:101840005349002243F0100362F3C71314206B7056
:101850002280088003B0BDE8F083043464B2002C19
:10186000FBDB99E72B7C012B21D972B63C48EB6856
:1018700062B62C2B0BDD013464B272B60022EA6032
:1018800062B6394D6B7862F3C7136B7076E7037CF1
:10189000012B61D972B6EB6862B62C33BCBF04F180
:1018A000FF3464B2E9E73B48FEF766FFC6E772B66D
:1018B0002B48FEF79FFED9E772B62B6869681A7845
:1018C0000878697A2B7A084202EA03022CD0AB7AB4
:1018D00003F003030AB143F0040343F008039A1032
:1018E000013BAA720D2B3FF643AF01A252F823F041
:1018F0005119000049190000411900004919000060
:101900007117000039190000511900005119000029
:101910003919000071170000491900004119000031
:101920004919000051190000AB7A03F00303002AA3
:10193000D5D043F00403D2E7EB68023BEB6018E735
:10194000EB680233EB6014E7EB68013BEB6010E7F8
:10195000EB680133EB600CE772B6FEF74BFE9AE7DB
:10196000F8B7FF1F1695FF1F0895FF1FA3B7FF1FAE
:1019700048820100588201008088FF1F98ACFF1F39
:10198000A8ADFF1FA9ADFF1F2882010062ABFF1F9A
:101990001495FF1F388201002DE9F043804D814EE0
:1019A0002B7C96F90040012B83B040F2A48072B6E4
:1019B000EB6862B62C33582B73D87B4D6B787A4A20
:1019C00019062ED443F08003032C537066DD043CCB
:1019D000E3B2032B5CB2FAD8744B347003F15001BC
:1019E000202203F8012F9942FBD1DFF8D491DFF8D0
:1019F000D4816F480026012789F8006088F80060CC
:101A0000FEF7BAFE6B4889F8006088F80070FEF7B0
:101A1000B3FE8DE8C0000223E2B204216648FFF75E
:101A200077FC2B78DB0734D5604B202103F1500283
:101A300003F8011F9A42FBD1604E2A78317D604F36
:101A40006048002363F300022A70B4EB911F4FF04B
:101A500001023B70027045D05B48FEF78DFE337D7E
:101A600064F387133375344606F12C0714F8011B11
:101A7000A01B0BF0A1FBBC42F8D16B78534C54492E
:101A8000002243F0100362F3C71314206B7022800E
:101A9000088003B0BDE8F083043464B2002CFBDBA3
:101AA0009AE72B7C012B21D972B63D48EB6862B6D0
:101AB0002C2B0BDD013464B272B60022EA6062B6F0
:101AC000394D6B7862F3C7136B7077E7037C012B9A
:101AD00062D972B6EB6862B62C33BCBF04F1FF3436
:101AE00064B2E9E73B48FEF747FEC6E772B62C480A
:101AF000FEF780FDD9E772B62B6869681A78087816
:101B0000697A2B7A084202EA03022DD0AB7A03F0FD
:101B100003030AB143F0040343F008039A10013BA6
:101B2000AA720D2B3FF644AF01A252F823F000BF7A
:101B3000911B0000891B0000811B0000891B000015
:101B4000B1190000791B0000911B0000911B0000DF
:101B5000791B0000B1190000891B0000811B0000E7
:101B6000891B0000911B0000AB7A03F00303002ADD
:101B7000D4D043F00403D1E7EB68023BEB6018E7F5
:101B8000EB680233EB6014E7EB68013BEB6010E7B6
:101B9000EB680133EB600CE772B6FEF72BFD99E7BB
:101BA000F8B7FF1F3CB7FF1F0895FF1FA3B7FF1F24
:101BB0004882010064820100E888FF1F98ACFF1F83
:101BC000A8ADFF1FA9ADFF1F2882010062ABFF1F58
:101BD0001495FF1F388201002DE9F843BA4C237C8D
:101BE000012B40F23A8172B6B748E36862B62C33F3
:101BF000582B6BD8B54D6B78B4491A063ED4B44A0D
:101C000092F9004043F08003032C4B7040F33F8176
:101C1000043CE3B2032B5CB2FAD81470AD4B202124
:101C200003F1500203F8011F9342FBD1AA4FAB4EC0
:101C3000AB484FF0000887F8008086F80080FEF778
:101C40009BFD002C6DD0012C00F00C810123022C97
:101C5000A44887F80080337000F02181FEF78CFDE6
:101C60000223A148337087F80080FEF785FD032327
:101C70009C4887F800803370FEF77EFD2B78DB07E9
:101C800022D5944B202103F1500203F8011F9A4200
:101C9000FBD18F4B2878697893F900208E4F8F4CB9
:101CA0000023012663F3000063F3C711B2422870DA
:101CB0003B70697026702FD0022A00F0C980002A7C
:101CC00000F0C180894A1380BDE8F883037C012BB2
:101CD00040F2A28072B67C48E36862B62C2B0DDD20
:101CE0007B4A13780133137072B60022E26062B649
:101CF000764D6B7862F3C7136B707CE7037C012B26
:101D000040F2DD8072B6E36862B62C33ECDA704ADA
:101D10001378013B1370E7E7744B16221A80BDE875
:101D2000F8830123724833703C70FEF725FD0223CF
:101D30006C4833703C70FEF71FFD032369483C700C
:101D40003370FEF719FD6B4CDFF8D081207898F8DE
:101D500000301844C0F1030040B2022201230028E1
:101D60003A7033705CDCDFF8B091634B93F900009C
:101D70000FF0ECFE61490FF03DFF61490FF03AFFB3
:101D800049460FF0EBFF0FF0DBFA02460B465D48C9
:101D90005D4911F0F5F84FF002095A48FEF7ECFCE6
:101DA00098F9000087F8009086F800900FF0B6FAD6
:101DB0000B4602464FF0804100200DF021FE0FF04F
:101DC000EBFD5249C2B24F4811F0DAF84D48FEF728
:101DD000D3FC032394F90000337087F800900FF0D0
:101DE0009DFA02460B4600204FF080410DF008FEA0
:101DF0000B460246464900200FF020FC0FF0CCFDB8
:101E0000C2B2012A08BF002242493E4811F0B8F888
:101E10003C48FEF7B1FC31E772B6FEF7EBFB5AE740
:101E20000FF07CFA02460B4600204FF080410DF087
:101E3000E7FD0FF089FD40B20FF088FE36490FF044
:101E4000D9FE814691E7294B15221A80BDE8F88317
:101E5000264B17221A80BDE8F88372B62046FEF79B
:101E6000C9FBC1E61F4887F800803470FEF784FC88
:101E700002231F48337087F80080FEF77DFC0323A0
:101E8000184887F800803370FEF776FC5BE7002C7B
:101E9000BFF6C4AE043464B2002CFBDBBDE6FEF733
:101EA0006BFC104887F800803470FEF765FC032354
:101EB0000F4887F800803370FEF75EFC43E772B688
:101EC000FEF798FB1FE700BFF8B7FF1F0895FF1F3D
:101ED00040B7FF1FA3B7FF1FA8ADFF1FA9ADFF1F8E
:101EE0007082010048810100C482010062ABFF1FC3
:101EF000848201003CB7FF1F9CB7FF1F0080BB45D9
:101F00006666E63F1CACFF1F888201009C820100D0
:101F100000002040B08201000000B4431695FF1F6E
:101F20002DE9F8438E4C8F4F237C8F4E97F8282055
:101F30003280012B40F2BA8072B6E36862B62C336D
:101F4000582B00F28280894D6A788849100631D476
:101F5000874B42F080024A7003F15001202203F8BF
:101F6000012F9942FBD1DFF82092DFF820828148CF
:101F7000002489F8004088F80040FEF7FDFB0123AB
:101F80007D4888F8003089F80040FEF7F5FBB6F987
:101F900000207A497A4802EB820210F0F1FF78487B
:101FA000FEF7EAFB0323774889F8004088F8003001
:101FB000FEF7E2FB2B786D49DA0744D51A466C4BE5
:101FC0006FF300020A7003F15001202203F8012F81
:101FD0009942FBD16C496D4A6D4C0123C7F1000851
:101FE0000B70137004F12C09C7F1020738190BF0BC
:101FF000C9F804F8010FA1455A4BF7D1B6F90020F2
:1020000093F82810914200F089801C4683F828201C
:1020100003F12C0614F8011B04EB08000BF0CCF8BC
:10202000B442F7D15B48FEF7A7FB6B785A4C5B498B
:10203000002203F0EF0362F3C7131E206B702280AF
:102040000880BDE8F883BDE8F883237C012B28D9FC
:1020500072B6E36862B62C2B04DDB6F90030424A52
:102060004F2B1BDD237C012B64D972B6E36862B66B
:102070002C3306DAB6F900303B4A002B01DD013B78
:10208000138072B60022E26062B6384D31886B78F8
:1020900087F8281062F3C7136B7055E7013313807C
:1020A000E0E772B62E48FEF7A5FAD2E772B62368CB
:1020B00061681A780878617A237A084202EA030292
:1020C00030D0A37A03F003030AB143F0040343F0D2
:1020D00008039A10013BA2720D2B3FF62EAF01A20E
:1020E00052F823F0572100004F2100004721000043
:1020F0004F2100003B1F00003F210000572100003E
:10210000572100003F2100003B1F00004F2100002D
:10211000472100004F210000572100002048FEF712
:102120002BFB82E7A37A03F00303002AD1D043F00C
:102130000403CEE772B60A48FEF75CFA96E7E36856
:10214000023BE360FAE6E3680233E360F6E6E36845
:10215000013BE360F2E6E3680133E360EEE600BFD3
:10216000F8B7FF1F98ACFF1FBE94FF1F0895FF1F15
:10217000A3B7FF1FDC820100F0820100048301008D
:102180001CACFF1F08830100A8ADFF1FA9ADFF1FF6
:1021900097ACFF1F2882010062ABFF1F1495FF1F41
:1021A000388201002DE9F0478F4CA37DC3F3C103B2
:1021B000063314F8232002F01F02012A3ADD8B4B6C
:1021C000202103F1500203F8011F9A42FBD1884FEE
:1021D000884E894800253D703570FEF7CDFA012301
:1021E000864833703D70FEF7C7FA03238448337086
:1021F0003D70FEF7C1FAA37D824AC3F3C1030633E3
:1022000014F82330804C03F01F0352F82300FEF72C
:10221000B3FA7E4B7E485A781978258042F0100236
:1022200065F3000165F3C7121E2419705A7004800B
:10223000BDE8F087774D784F2A7C04EB8303012AB1
:102240009B783B8040F2BD8072B67248EB6862B604
:102250002C33582B2FD9037C012B40F2C08072B64F
:10226000EB6862B62C2B05DDB7F900306A4AEE2B1D
:1022700040F3A2802B7C012B40F2AC8072B6EB685D
:1022800062B62C3306DAB7F90030634A012B01DD60
:10229000013B138072B60021E96062B65B4EA37DFC
:1022A00072783888C3F3C10304EB830361F3C71268
:1022B0007270987600E0554E7278544910062FD40B
:1022C0004A4B42F080024A7003F15001202203F889
:1022D000012F9942FBD1DFF81891DFF818814F48A0
:1022E000002589F8005088F80050FEF745FA0123D0
:1022F0004B4888F8003089F80050FEF73DFAB7F9EE
:1023000000204849484810F03BFE4748FEF734FAA1
:102310000323464889F8005088F80030FEF72CFA6D
:1023200033783A49DA074AD51A46304B6FF3000240
:102330000A7003F15001202203F8012F9942FBD1CA
:102340002B492C4A3A4D01230B70137005F12C0ACE
:10235000C4F10008C4F1020909EB05000AF012FFFC
:1023600005F8010FAA45204CF6D1A37DB7F900204E
:10237000C3F3C103063304EB83039978914225D05C
:102380009A7004F12C0514F8011B04EB08000AF004
:1023900013FFAC42F7D12748FEF7EEF973781A4CD9
:1023A0001B49002243F0100362F3C7131E20737011
:1023B00022800880BDE8F087013313805AE7BDE82A
:1023C000F08772B62846FEF715F93EE71A48FEF781
:1023D000D3F9E3E772B60F48FEF70CF94FE772B690
:1023E000FEF708F93CE700BF98ACFF1FA3B7FF1F3B
:1023F000A8ADFF1FA9ADFF1F20830100348301009A
:10240000848201000C89FF1F62ABFF1F0895FF1F2C
:102410001495FF1FF8B7FF1FBC94FF1F4C830100EA
:10242000F0820100608301001CACFF1F6883010083
:1024300097ACFF1F28820100388201002DE9F04788
:10244000864D2B78FF2B00F0B380854C854F227C86
:102450003B80012A40F2F08072B68148E36862B6A0
:102460002C33582B7FD8804E72787F4910062BD49E
:102470007E4B42F080024A7003F15001202203F8A3
:10248000012F9942FBD1DFF80482794D794800246D
:1024900088F800402C70FEF76FF9012376482B7006
:1024A00088F80040FEF768F9B7F9002073497448CE
:1024B00010F066FD7248FEF75FF90323714888F853
:1024C00000402B70FEF758F933786749DA076DD56D
:1024D0001A46664B6FF300020A7003F15001202286
:1024E00003F8012F9942FBD1674D6849604A05F115
:1024F00001080123C8F1000905F12C0AC8F10208FE
:102500000B70137008EB05000AF03CFE05F8010F94
:10251000AA455F4CF6D1A37DB7F90020C3F3C103F0
:10252000063304EB8303D978914200F08A80DA7095
:1025300004F12C0514F8011B04EB09000AF03CFE21
:10254000AC42F7D15348FEF717F97378524C534910
:10255000002243F0100362F3C7131E207370228021
:102560000880BDE8F087037C012B73D972B6E3685D
:1025700062B62C2B58DC237C012B66D972B6E3683B
:1025800062B62C3306DAB7F90030364A002B01DD8B
:10259000013B138072B60022E26062B6324E398887
:1025A0007378297062F3C71373705DE7BDE8F08735
:1025B0002E4B202103F1500203F8011F9A42FBD158
:1025C0002B4D324E364800242C703470FEF7D4F870
:1025D000012334482B703470FEF7CEF803233248C1
:1025E0002B703470FEF7C8F8294A3049937D2A4D84
:1025F000C3F3C103063312F8233003F01F0351F86D
:102600002300FEF7B9F8184B24485A7819782C8023
:1026100042F0100264F3000164F3C7121E24197023
:102620005A700480BDE8F087B7F900300D4AFD2BE1
:10263000A1DC013313809EE772B62046FDF7DAFF76
:102640000BE71B48FEF798F87FE772B60448FDF7E2
:10265000D1FF94E772B6FDF7CDFF88E798ADFF1F75
:10266000F8B7FF1F90B7FF1F0895FF1FA3B7FF1F05
:10267000A9ADFF1FA4830100F0820100BC8301000B
:102680001CACFF1FC483010097ACFF1FA8ADFF1F48
:1026900098ACFF1F2882010062ABFF1F1495FF1F3B
:1026A0007C83010090830100848201000C89FF1F5C
:1026B000388201002DE9F0418E4C237C012B82B041
:1026C00040F2B58072B6E36862B62C33582B5DD801
:1026D000894D6B78884A190628D4884991F90040B9
:1026E00043F08003012C537040F3E280A31EDBB261
:1026F000012B5CB2FAD80C70814B202003F1500101
:1027000003F8010F8B42FBD1DFF81C827D4F7E481E
:10271000002688F800603E70FEF72EF80221009631
:10272000E2B2019101237948FEF7F2FD2B7872495C
:10273000DA0728D5714A92F900206FF300030B7075
:10274000002A3AD0012A6E4C51D0DFF8DC816D4F5F
:1027500004F150062346202203F8012F9E42FBD1AC
:1027600001236B4888F800303B70FEF705F86B7862
:10277000684C6949002203F0EF0362F3C7131E207F
:102780006B702280088002B0BDE8F081237C012BB1
:1027900048D972B65748E36862B62C2B19DD574A00
:1027A00013780133137072B60022E26062B6524DA4
:1027B0006B7862F3C7136B708BE7514B202103F1E9
:1027C000500203F8011F9342FBD1DFF85C814D4FAB
:1027D000C6E7037C012B40F2888072B6E36862B6DC
:1027E0002C33E0DA454A1378013B1370DBE7FE2116
:1027F00004F1500600200AF0DFFC31462346202277
:1028000003F8012F9942FBD1DFF81C813D4F43486B
:10281000012388F800303B70FDF7AEFF404B414A82
:102820001A6097E772B63348FDF7E4FEB2E772B676
:10283000236861681A780878617A237A084202EA84
:1028400003022DD0A37A03F003030AB143F004037B
:1028500043F008039A10013BA2720D2B3FF633AFF1
:1028600001A252F823F000BFE3280000DB2800009B
:10287000D3280000DB280000C7260000CB2800007A
:10288000E3280000E3280000CB280000C726000052
:10289000DB280000D3280000DB280000E32800002C
:1028A000A37A03F00303002AD4D043F00403D1E752
:1028B000002CBFF621AFE3B2DA4302F0FE0213446C
:1028C000DBB202330B705CB216E7E368023BE360F5
:1028D000FAE6E3680233E360F6E6E368013BE360AF
:1028E000F2E6E3680133E360EEE672B6FDF782FEDE
:1028F00074E700BFF8B7FF1F0895FF1F7CB7FF1FE5
:10290000A3B7FF1FA9ADFF1FD8830100FC87FF1FDE
:102910003882010062ABFF1F1495FF1FE88301009E
:102920000CED00E00400FA05A8ADFF1F2DE9F84307
:10293000714E724C737D227C714FC3F344030A3392
:10294000012A3B7040F2CA8072B66C48E36862B6F6
:102950002C33582B00F28F806A4D6A786949100633
:102960003CD4694B42F080024A7003F150012022AE
:1029700003F8012F9942FBD1DFF8A891DFF8A88175
:102980006248002489F8004088F80040FDF7F4FE12
:1029900001235F4888F8003089F80040FDF7ECFE1D
:1029A00097F900E05B4A5C495C4882FB0E324FEAD3
:1029B000EE73C3EBA20202EB8203AEEB43035BB206
:1029C00052B210F0DDFA5548FDF7D6FE0223544806
:1029D00089F8004088F80030FDF7CEFE2B78494991
:1029E000DA0746D51A46484B6FF300020A7003F126
:1029F0005001202203F8012F9942FBD149494A4A4C
:102A00004A4C0123C6F100080B70137004F12C0925
:102A1000C6F1020630190AF0B5FB04F8010FA14512
:102A2000354BF7D197F900105A7D0A39C2F34400AB
:102A3000884258D061F345021C465A7503F12C06B2
:102A400014F8011B04EB08000AF0B6FBB442F7D1FE
:102A50003748FDF791FE6B78364C3749002203F07A
:102A6000EF0362F3C7131E206B7022800880BDE85D
:102A7000F883BDE8F883037C012B2BD972B6E36899
:102A800062B62C2B04DD97F900301D4A282B1EDD81
:102A9000237C012B2BD972B6E36862B62C3306DA9D
:102AA00097F90030164A0A2B01DD013B137072B60C
:102AB0000020E06062B6134D3B786978727D0A3B76
:102AC00060F3C71163F345026970727545E701331E
:102AD0001370DDE772B6FDF78DFDD0E772B62046C4
:102AE000FDF788FD31E71548FDF746FEB3E772B6FE
:102AF0000248FDF77FFDCFE798ACFF1FF8B7FF1F37
:102B0000C4ACFF1F0895FF1FA3B7FF1FFC83010084
:102B100010840100676666661C8401001CACFF1F00
:102B200028840100A8ADFF1FA9ADFF1F97ACFF1FB0
:102B30002882010062ABFF1F1495FF1F388201003D
:102B40002DE9F84F9A4F3B88B3F52F7F00F0FF80B7
:102B500040F2BD22934200F00C814FF00209C846BA
:102B6000944C954D237CDFF858A215F80920AAF85B
:102B70000020012B40F2108172B68E48E36862B6E5
:102B80002C33582B00F2CB808C4E72788B49100678
:102B900000F194802B7842F080024A7003EB8302AC
:102BA0005200632A94BF12B26322B8F1000F0BD116
:102BB000BAF90030824A632B00F3DF80002B00F368
:102BC000F080012313800CE0BAF900107C488A429F
:102BD00001DA028011461AB28A42D4BFCBB2AAF8F7
:102BE000002005F809302B786978734A03EB8300DD
:102BF0004000814202DB411EC9B25170AA786E4C7E
:102C0000904205DC03EB83025200013AD2B2A2707B
:102C1000994238BF6B709A4238BFAB70B8F1010F60
:102C200000F0B280B8F1020F05D1AB786A78624942
:102C30009A4288BF4B70634B202103F1500203F886
:102C4000011F9A42FBD1DFF89C915F4C5F484FF027
:102C5000000A4FF0060B89F800A084F800A0FDF7E9
:102C60008BFD01232A785A495A48237089F800B00D
:102C700010F086F95748FDF77FFD02236A78564920
:102C80005448237089F800B010F07AF95148FDF7E4
:102C900073FD0323AA7851494E48237089F800B088
:102CA00010F06EF94B48FDF767FD08F101084C483C
:102CB00089F800A084F80080FDF75EFD33783F4975
:102CC000DA072AD51A463F4B6FF300020A7003F168
:102CD0005001202203F8012F9942FBD141493A4A81
:102CE000354C01230B70137004F12C0814F8011BF0
:102CF000601B0AF061FA4445F8D13B48FDF73CFD02
:102D000073783A4943F010036FF3C7131E2046222D
:102D1000737008803A80BDE8F88FBDE8F88F037CB7
:102D2000012B2DD972B62348E36862B62C2B12DD35
:102D3000BAF800300133AAF8003072B60022E2601F
:102D400062B61E4E737862F3C71373701DE74FF0BF
:102D50000009C84604E7037C012B24D972B6E36856
:102D600062B62C33E9DABAF80030013BAAF8003039
:102D7000E3E74FF00109C846F2E66323138030E72A
:102D800072B6FDF737FCCEE76B78AA780A499A420B
:102D9000BFF451AF8B704EE772B62046FDF72AFCA8
:102DA000EBE6DBB21DE772B6FDF724FCD7E700BF08
:102DB00062ABFF1FF8B7FF1F98ACFF1F0895FF1FFE
:102DC00088ACFF1FA3B7FF1FA9ADFF1F3C84010004
:102DD000548401001CACFF1F648401007484010052
:102DE00084840100A8ADFF1F288201001495FF1FF5
:102DF0002DE9F84FA14C237C012B40F2E38072B601
:102E0000E36862B62C33582B00F28A809C4C6378BE
:102E10009B49180654D49B4D95F9002043F080033C
:102E2000032A4B7040F30E81043AD3B2032B5AB2FB
:102E3000FAD82A70944B202003F1500103F8010FB7
:102E40009942FBD1032A914F914EDFF8709214BF43
:102E500090489148DFF834A2DFF834B200234FF0F5
:102E600006083B703370FDF787FC01238B4999F806
:102E700000208B48337087F8008010F081F8884874
:102E8000FDF77AFC022399F80120864984483370C3
:102E900087F8008010F074F88148FDF76DFC03237B
:102EA00099F8022080497E48337087F8008010F03E
:102EB00067F87B48FDF760FC95F90030022B5EDD7A
:102EC00023786F4AD90729D56E4991F900106FF31D
:102ED00000030129137048D0022969D000295DD070
:102EE000694B202103F1500203F8011F9342FBD1EB
:102EF0006649674B6D48002501221A700D70FDF779
:102F00003BFC63786A496B4A0D8003F0EF0365F37D
:102F1000C7131E2163701180BDE8F88FBDE8F88FDC
:102F2000237C012B35D972B65448E36862B62C2B4A
:102F30000DDD544A13780133137072B60022E2603B
:102F400062B64F4C637862F3C71363705FE7037C2C
:102F5000012B40F28F8072B6E36862B62C33ECDA54
:102F6000484A1378013B1370E7E7537850496FF3F1
:102F7000C71340F2BD2053700880BDE8F88F0133BD
:102F800004224D488BF800308AF80020FDF7F4FB4E
:102F900096E772B63948FDF72DFBC5E753784448EC
:102FA00061F3C7134FF42F7153700180BDE8F88FA0
:102FB00053783F496FF3C71340F2BE205370088027
:102FC000BDE8F88F72B6236861681A780878617A6C
:102FD000237A084202EA03022CD0A37A03F0030307
:102FE0000AB143F0040343F008039A10013BA272B4
:102FF0000D2B3FF605AF01A252F823F06D30000013
:10300000653000005D30000065300000012E0000DA
:10301000553000006D3000006D300000553000006C
:10302000012E0000653000005D30000065300000BA
:103030006D300000A37A03F00303002AD5D043F0DB
:103040000403D2E7002ABFF6F5AE043252B2002ADA
:10305000FBDBEEE6E368023BE360D2E6E3680233C3
:10306000E360CEE6E368013BE360CAE6E368013370
:10307000E360C6E672B6FDF7BDFA6DE7F8B7FF1F6D
:103080000895FF1F95B7FF1FA3B7FF1FA8ADFF1F30
:10309000A9ADFF1F8C840100A084010054840100AD
:1030A0001CACFF1F6484010074840100B88401001B
:1030B00062ABFF1F1495FF1F8482010098ACFF1FB5
:1030C0002DE9F04FDFF88082934C98F80130934E51
:1030D000227CDFF88892317C89F800106FF3C713E7
:1030E000012A83B088F8013040F2BB8072B6E368F1
:1030F00062B62C33582B00F2888099F80020884C57
:10310000202104F15005234603F8011F9D42FBD105
:10311000DFF850A2834F844801924FF0000B8AF8E9
:1031200000B087F800B0FDF727FB01237F483B7014
:103130008AF800B0FDF720FB019A7D4B7D497E485F
:10314000A3FB023E4FEA5E1E642303FB1E23DBB299
:1031500072460FF015FF7848FDF70EFB0223774803
:103160003B708AF800B0FDF707FB032374483B70FF
:103170008AF800B0FDF700FB724B1868FDF722FCDF
:103180006D48FDF7F9FA98F800306F4AD90739D53C
:103190006BF300031370202304F8013FA542FBD119
:1031A0006A4C01233B7004F12C0577428AF8003009
:1031B000C6F10206301909F0E5FF04F8010FA54237
:1031C000564BF7D199F80020197C914200F082808B
:1031D0001C461A7403F12C0514F8011BE01909F0C0
:1031E000EBFFAC42F8D15A48FDF7C6FA98F8013027
:1031F0005848594A6FF304131E24002188F80130FF
:103200000480118003B0BDE8F08F237C012B23D90B
:1032100072B6E36862B62C2B04DD99F800304F4A91
:10322000F92B16D9237C012B60D972B6E36862B6FC
:103230002C3306DA99F80030484A0A2B01D9013BB1
:10324000137072B60023E36062B699F800203274FE
:1032500055E701331370E5E772B62F48FDF7CAF959
:10326000D7E772B6236861681A780878617A237A9A
:10327000084202EA030231D0A37A03F003030AB141
:1032800043F0040343F008039A10013BA2720D2B94
:103290003FF62DAF01A252F823F000BF0F3300001C
:1032A00007330000FF32000007330000EF3000005A
:1032B000F73200000F3300000F330000F732000038
:1032C000EF30000007330000FF320000073300003A
:1032D0000F3300002248FDF74FFA87E7A37A03F087
:1032E0000303002AD0D043F00403CDE772B60A48A6
:1032F000FDF780F99AE7E368023BE360F8E6E368EC
:103300000233E360F4E6E368013BE360F0E6E36880
:103310000133E360ECE600BFF8B7FF1F98ACFF1F76
:10332000A3B7FF1FA9ADFF1FD084010010840100C7
:103330001F85EB51E48401001CACFF1FF0840100E9
:103340000885010050B8FF1F0895FF1F97ACFF1FAD
:10335000288201001495FF1F62ABFF1F76ABFF1F91
:1033600038820100A8ADFF1F2DE9F047A34E738AF4
:10337000B3F5FA7F82B000F0C280A14CB3F57A7F3A
:10338000237C14BF00270227012B40F2BF8072B6B6
:10339000E36862B62C33582B40F2A280237C012BC9
:1033A00040F2F88072B69648E36862B62C2B40F380
:1033B000E58001377FB272B60023E36062B6914DBB
:1033C0006A7863F3C712D3B223F07F016A7001F009
:1033D000FF0200293ED143F08003032F6B7008BF2A
:1033E000174640F08480C8235FFA87F97382864BC2
:1033F000202003F1500103F8010F9942FBD1DFF8BF
:103400002482824F824800244FF0010A88F800404D
:103410003C70FDF7B1F97F4888F8004087F800A0BC
:10342000FDF7AAF9062153464A4600917A48CDF89D
:1034300004A00321FDF76CFF022378483B7088F855
:103440000040FDF799F90323754888F800403B7068
:10345000FDF792F92B78D9073FD56B4B202103F16B
:10346000500203F8011F9A42FBD12A786D48674940
:103470006D4CB6F81280002363F300022A7001221B
:10348000774203700A7004F12C09C6F10206301964
:1034900009F078FE04F8010FA145584BF7D15A8A7C
:1034A00042457CD01C46A3F8128003F12C0614F888
:1034B000011BE01909F080FEB442F8D15B48FDF72A
:1034C0005BF96B785A4C5B49002203F0EF0362F31F
:1034D000C7131E206B702280088002B0BDE8F08701
:1034E000484D6B781A06B5D443F080036B70781C96
:1034F00078D14FF47A7373824FF0020977E7404C2A
:10350000237C012B4FF001073FF641AF72B62368D1
:1035100061681A780878617A237A084202EA03021D
:1035200041D0A37A03F00303002A58D143F00803E3
:103530009A10013BA2720D2B3FF62AAF01A252F85E
:1035400023F000BFCF350000C7350000BF350000B5
:10355000C735000091330000B7350000CF350000BB
:10356000CF350000B735000091330000C7350000AB
:10357000BF350000C7350000CF350000037C012BAC
:1035800029D972B6E36862B62C33BCBF07F1FF37A6
:103590007FB210E772B61A48FDF72CF803E7264809
:1035A000FDF7EAF88DE7A37A03F00303002ABFD002
:1035B00043F00403BCE7E368023BE360E9E6E36849
:1035C0000233E360E5E6E368013BE360E1E6E368DC
:1035D0000133E360DDE672B6FDF70CF8D2E743F0A5
:1035E0000403A3E7012F03D0022F7FF4FCAE80E792
:1035F0004FF4FA73B9467382F9E600BF98ACFF1F27
:10360000F8B7FF1F0895FF1FA3B7FF1FA9ADFF1F46
:1036100018850100308501002C88FF1F38850100C6
:103620004C850100A8ADFF1F97ACFF1F2882010049
:1036300062ABFF1F1495FF1F38820100F8B5244DBF
:103640002B78EBB92349244B4A7842F040024A7068
:1036500003F15001202203F8012F8B42FBD11F4EB2
:103660001F4C20480223002723703770FDF784F891
:1036700003231D4823703770FDF77EF801232B705C
:103680001A4C2278D30722D51249134B48786FF38E
:1036900000026FF3861022704870202203F150015F
:1036A00003F8012F8B42FBD10C490D4B104800262B
:1036B00001221A700E70FDF75FF863780D480E4A0C
:1036C0002E7043F010031421068063701180F8BD42
:1036D0004CB8FF1F70ACFF1FA3B7FF1FA8ADFF1FA3
:1036E000A9ADFF1F60850100788501000895FF1FC7
:1036F0003882010062ABFF1F1495FF1F70B5754C37
:10370000237C012B82B040F2918072B67148E3684D
:1037100062B62C33582B61D86F4D6B786E4A180601
:1037200028D46E4991F9004043F08003112C537066
:1037300040F38180A4F11202D2B2112A54B2F9D816
:103740000C70674B202003F1500103F8010F9942E0
:10375000FBD1644A644B6548002616701E70FDF765
:103760000BF8032301930096E2B201231221604873
:10377000FDF7CEFD2B78584AD9072DD557495078FB
:1037800091F900106FF300036FF3C71013705070BE
:1037900010290AD8DFE801F05666625E5A869692D2
:1037A0008E8A726E6A827E7A76004D4B202103F1FA
:1037B000500203F8011F9342FBD14E4A494E4A4C36
:1037C0004D4801231421337023701180FCF7D4FF7E
:1037D0006B786FF304136B7002B070BD037C012B28
:1037E00020D972B63B48E36862B62C2B0DDD3B4A0C
:1037F00013780133137072B60022E26062B6364D60
:103800006B7862F3C7136B7087E7037C012B5DD97C
:1038100072B6E36862B62C33EDDA304A1378013BB6
:103820001370E8E772B6FCF7E5FEDBE772B62046F8
:10383000FCF7E0FE6AE7002C83DA123464B2002C55
:10384000FBDB7DE72D4B01221A80C5E72B4B1422B1
:103850001A80C1E7294B0A221A80BDE7274B0322B1
:103860001A80B9E7254B02221A80B5E7234B3C2288
:103870001A80B1E7214B37221A80ADE71F4B322265
:103880001A80A9E71D4B63221A80A5E71B4B5A2219
:103890001A80A1E7194B50221A809DE7174B462248
:1038A0001A8099E7154B19221A8095E7134B2822A5
:1038B0001A8091E7114B23221A808DE70F4B1E22AD
:1038C0001A8089E70D4B1D221A8085E772B6FCF736
:1038D00091FE9EE7F8B7FF1F0895FF1FA5ADFF1FDC
:1038E000A3B7FF1FA8ADFF1FA9ADFF1F8C85010067
:1038F0009088FF1F1495FF1F9C85010062ABFF1F7E
:1039000000B50F4A83B0222311686846232208F0CD
:10391000C7FF009A0B4B9A4209D00199994206D0F1
:1039200009480A4B01801A8003B05DF804FB064980
:10393000064A4FF6FF730B80138003B05DF804FB5B
:1039400054B8FF1F90EEFEFF80ADFF1FC4ABFF1FFA
:10395000F8B53B4C24680A2C1FDC37A5D5E9004597
:10396000384A394BC2E9004500221A80374B587D4E
:10397000C0F344000A300EF0E9F835490EF0EEF9D4
:103980000DF0DEFC22462B460DF0A0FFB8BB014631
:10399000BDE8F840212009F097BE16461F460246B2
:1039A0000B46304639460DF049FE0022294B0646AB
:1039B0000F460DF067FB324604460D463B4600209D
:1039C0002449204E0DF05CFB02460B46204629465A
:1039D0000DF034FE04460D4600220023C6E90045E2
:1039E0000DF074FF88B900221B4B204629460DF0CC
:1039F0006DFF80B9144B4FF47A721A80B6E701213B
:103A00002120BDE8F84009F05FBE0BA5D5E90045CF
:103A1000C6E90045EEE7204629460BF071FF0F4B43
:103A200000220DF0E1FC0DF0B7FF074BD6E9004591
:103A300018809BE7AFF30080000000008087C34040
:103A400074ACFF1FE088FF1F60ABFF1F98ACFF1F27
:103A5000000020410000F03F0000244000408F4063
:103A6000F0B41D4D1D4E2B7837881D491D4A41F875
:103A70002300528A1C4C791C89B2914203F1010344
:103A8000DBB2318024BF00213180092B2B7088BF2D
:103A9000002344F8270088BF2B7062B1013A90B22E
:103AA000124B04EB8000002253F8041F8A42B8BF77
:103AB0000A468342F8D10A4B002103F1280453F847
:103AC000040B8142B8BF0146A342F8D10848094B14
:103AD00002601960F0BC70470695FF1F0495FF1F38
:103AE000C494FF1F98ACFF1F2C95FF1F2895FF1F44
:103AF00068ABFF1F0095FF1F2DE9F84FFFF700FF90
:103B00009D4B9E4A1888B2F80080404540F2B7802D
:103B10009B4B00221A700EF019F89A490EF06AF8C1
:103B20004FF066510EF066F897490EF063F897492A
:103B30000EF014F90DF004FC0022954B04460D46DE
:103B40000DF0D8FE80B1204629460022904B0DF0A2
:103B500097FA87A3D3E900230DF046FC00228C4B93
:103B60000DF090FA04460D468A4BDFF86CB2187CD3
:103B70000DF0D4FB002206460F46874B204629460F
:103B80000DF032FC32463B460DF02EFC0022834BFA
:103B90000DF054FD002204460D46814B0DF024FC2F
:103BA00022462B460DF020FC00227E4B0DF046FDF8
:103BB0000DF0CAFE8246CBF800A040460DF0C6FFCD
:103BC00070490EF017F84FF066510EF013F86E4979
:103BD0000EF010F86D490EF0C1F80DF0B1FB0022A7
:103BE0006B4B804689460DF085FE80B140464946C4
:103BF0000022674B0DF044FA5DA3D3E900230DF0DA
:103C0000F3FB0022624B0DF03DFA804689464046A8
:103C10000022614BDFF8C48149460DF0E5FB3246D6
:103C20003B460DF0E1FB00225C4B0DF007FD00224E
:103C300006460F465A4B0DF0D7FB32463B460DF079
:103C4000D3FB0022574B0DF0F9FC0DF07DFE564BD7
:103C50001860564B1B78BAEB000048BF40425A0729
:103C6000C8F8000078D53B46324620462946FFF783
:103C70006FFE4F4B1B781B060BD4BDE8F88F4049F5
:103C8000108001240246A3F8008040460C70904644
:103C900041E7322142F210730020CBF800300BF0E4
:103CA0000FFB00F514531C331846C8F80030FFF71B
:103CB000D7FE404A404B92F900001F78DFF8208180
:103CC0003E4D3F4E0DF042FF3E490DF093FF3E4BFF
:103CD000044618680DF03AFF014620460DF08AFFB1
:103CE0003A4B03EBC703814658680DF02FFF01469E
:103CF00048460DF077FE0EF043F958F82730181AB1
:103D00000028B8BF404200EB40000DF007FB002444
:103D100022462B46804689460DF0F6FD08BB002260
:103D2000204B404649460DF089FC02460B460DF0FB
:103D30005BFB4FF08042264B0DF0A4F9C6E9000171
:103D40000BF0DEFD164B00220DF04EFB0DF024FEB5
:103D5000204B1880BDE8F88FD8F80000FFF780FEF0
:103D600081E7C6E9004520462946E9E7AFF3008030
:103D7000000000609EA0E63F80ADFF1FC4ABFF1FA8
:103D80009BADFF1F3333534000401C4700A08C46BF
:103D90000000D03F98ACFF1F0000344000005940A5
:103DA00000408F400000494080B7FF1F0895FF1F6B
:103DB00064ABFF1F2888FF1F44B7FF1F0000794036
:103DC000E088FF1FCDCCCC3F0889FF1FACABFF1FA5
:103DD0003333F33F60ABFF1F74ACFF1F50B8FF1FBE
:103DE00040B8FF1F2DE9F041694C6A4E23786A4FB5
:103DF000012B40F2B480694A756879685268A5F56C
:103E000074259142A5F5107580F2A0806448521B7C
:103E10007A600260991E634B7360C9B25D4E0131D6
:103E200006EBC1013346DA68521BDA6008338B4275
:103E3000F9D16278564B012A2CD91B785749D7F80B
:103E40000CC0C968DFF850814FEAC30E06EB0E05BF
:103E50008C456D68A5F57425A5F5107504DB5249F0
:103E6000C9688C4540F38580491BC8F80C10416037
:103E7000023A591CB64451FA82F14A4ACEF804205B
:103E800006EBC10106EBC303DA68521BDA600833A4
:103E90008B42F9D1A2783E49012A2AD90C784B7875
:103EA0003E49D7F814E04D69DFF8ECC02344D9004F
:103EB0007418AE456468A4F57424A4F5107403DB8B
:103EC000394D6D69AE454CDD2D1BCCF81450856025
:103ED000023A7018591C51FA82F1324A426006EBDC
:103EE000C10106EBC303DA68121BDA60083399429A
:103EF000F9D1294CC7F1630704F1180514F8011B27
:103F0000E01909F059F9AC42F8D1284D7C2420463B
:103F100015F8011B013409F04FF9882CF7D1204D19
:103F200015F8011B2046013409F046F9942CF7D10D
:103F3000184CC6F1930604F5C86514F8011BA019C6
:103F400009F03AF9AC42F8D1BDE8F081164A1448BC
:103F50005268914215DD521B7A6002605AE71048A0
:103F600067E78568C4EB0E0E2D1BCCF814E0856066
:103F7000AEE74168C5EB0C0C491BC8F80CC04160AA
:103F800076E70268491B521B7960026042E700BF76
:103F90001095FF1FCCA4FF1F64B7FF1FACABFF1F22
:103FA00040B8FF1F40420F0024B8FF1FC8ACFF1FDE
:103FB0002DE9F04F494B93F8009093F801C093F826
:103FC00002B00CEB09030BEB030E83B00EF1FF3EC6
:103FD000BEF1000F019340DD414C4FF0000A264630
:103FE0000022134614E056F83150002D06EBC107AD
:103FF00006EBC20814DD46F832507A6846F8310004
:10400000C8F8042078600133DBB273451A461EDA23
:1040100054F83200511C0028E5D0511C56F831509C
:10402000002DF0D0A84204EBC20804EBC107EADD82
:104030000133DBB244F8325073457A68D8F8045043
:1040400044F83100C8F804207D601A46E0DB0AF12C
:10405000010A5FFA8AFAF245C2DBB9F1010F0ED903
:10406000A9F102011F4A1E4B5068C9B2013103EB8E
:10407000C1019A6802B9D86008338B42F9D1BCF10A
:10408000010F12D9164CACF1020C09F1010151FAE1
:104090008CF104EBC90304EBC1011C469A680AB910
:1040A0006268DA6008339942F8D1BBF1010F12D986
:1040B000019B0B4C5A1CABF1020B04EBC30352FAED
:1040C0008BF204EBC20419469A680AB94A68DA60AE
:1040D00008339C42F8D103B0BDE8F08F1095FF1F64
:1040E000CCA4FF1FACABFF1F30B4164C164D61784B
:1040F0002378A478CA1811194FF000032B700CD044
:10410000124C2268904204DC1AE054F833208242B8
:1041100016DA0133DBB28B42F7DB0D4B1B7833B978
:104120000C4A1268904200DB2B7030BC7047022BA7
:10413000FBD1094B1B689842F7DA00232B70F4E798
:104140002B70EAE71095FF1FA6ADFF1FCCA4FF1F41
:1041500044B7FF1FFC94FF1FF494FF1F544B5549B5
:10416000F0B500221C6804E0A34238DAC82A00F047
:10417000958051F83230D0B20132002BF4D14E4C40
:10418000207063700023A370002841D14B4A4C4B30
:104190004C485060586060784B4D15601D60464D2E
:1041A000002847D02D782844013801EBC50E01EBDB
:1041B000C00651F83070DEF80400D060A07851F8E5
:1041C000355076689560DE609F603B4D00283BD19E
:1041D0003D483C491061186151615961F0BD3B4A4D
:1041E000354C15682070AB42034606DB5DE051F8A4
:1041F0003320002A3CD0AA423DDA0133DBB2C82B7F
:10420000F5D1C0F1C80363700023A3700028BDD0AE
:1042100001382A4A51F83070294B01EBC005486833
:10422000506060786E680D6815605E601F60224D9A
:104230000028B7D12348D060D860A078224D95607F
:104240009D601D4D0028C3D02E786C7834442044E6
:10425000013801EBC00501EBC40751F830606D680F
:10426000786851F834105D611E6150611161F0BDD4
:104270001B1ADBB285E71A1AD2B262701A4602E044
:1042800051F832503DB10132D2B2C82AF8D1C3F14F
:10429000C803DBB277E7D31ADBB274E7064C00231E
:1042A000227010466370A370B2E70022E5E700BFFA
:1042B000F494FF1FCCA4FF1F1095FF1FACABFF1F92
:1042C00024B8FF1F40420F00809FD500FC94FF1FC1
:1042D0002DE9F843434D444C2B786A78A8786178EF
:1042E000134403446FF3C711C82B617066D03F4A73
:1042F0001278920721D43E4B202103F1500203F89B
:10430000011F9342FBD13B4F3B4E3C48012300250C
:1043100033703D70FCF730FA022339483D7033703A
:10432000FCF72AFA63783749374A0D8065F304139E
:104330001E2163701180BDE8F883DFF8DC80334E06
:1043400098F80020DFF8D4C0A85C5CF82210DFF8F1
:10435000D0E006EBC2090130D9F80470A854394402
:104360000EEBC30756F83200C9F80410DFF8B4901A
:104370004EF833007960002549F822104CF822509D
:10438000FFF716FEFFF7EAFEFFF72CFDFFF7E6FE4C
:1043900098F8003056F83300FFF7A6FE144B2021A2
:1043A00003F1500203F8011F9342FBD11149124B54
:1043B0001748002501220D701A70B1E70D490E4B08
:1043C0001448002501221A700D70FCF7D5F96378A6
:1043D0000C490D4A0D8065F304133221637011807E
:1043E000BDE8F8831095FF1F0895FF1F70ACFF1FF5
:1043F000A3B7FF1FA8ADFF1FA9ADFF1FC085010018
:10440000D485010062ABFF1F1495FF1F64B7FF1F27
:10441000E8850100B085010044B7FF1FC8ACFF1F4D
:10442000CCA4FF1F40B8FF1F2DE9F047A64EA74DB3
:1044300031787378B2780B44D34207D12A786B78FD
:1044400042F0010243F080032A706B70A04C237C81
:10445000012B40F2F68072B69D48E36862B62C33B9
:10446000582B16D9037C012B40F2E78072B698488E
:10447000E36862B62C2B40F3D280964A137801335E
:10448000137072B60022E26062B66B7862F3C713F3
:104490006B706B788D4A190648D4717896F800C015
:1044A00096F802E08B4F8C440CF10101714497F9AE
:1044B0000040C9B243F080038C42537004DB641A9D
:1044C00064B28C42FBDA3C70002CB8BFE3B205DA70
:1044D0000B44DBB25CB2002CFADB3C707E4B20203C
:1044E00003F1500103F8010F8B42FBD1DFF8F89183
:1044F000DFF8F881E6444FF0000A744589F800A01F
:1045000088F800A060DB7548FCF736F90123744891
:1045100089F800A088F80030FCF72EF903237148D1
:1045200089F800A088F80030FCF726F92B78674856
:10453000DA0729D534787278B17822446FF3000312
:104540005218037022D0634B93F900309A427DDCFD
:10455000614B202103F1500203F8011F9342FBD16C
:104560006149624B6248002403221A700C70FCF708
:1045700003F96B785F49604A0C8003F0EF0364F342
:10458000C71314216B701180BDE8F087524B2021B6
:1045900003F1500203F8011F9A42FBD15249534BD9
:1045A0005648002401221A700C70FCF7E5F86B786D
:1045B0005049514A0C8003F0EF0364F3C7131E21E6
:1045C0006B701180BDE8F0874D48FCF7D5F84D4978
:1045D0004D4889F800A00123224688F800300EF0EB
:1045E000CFFC4948FCF7C8F897F90020474B53F82F
:1045F0003200FCF7EDFA4648FCF7BEF802234548C6
:1046000088F8003089F800A0FCF7B6F8424A434B1E
:10461000127853F83200FCF7DBFA3D487CE7037C64
:10462000012B4DD972B6E36862B62C33BFF629AFC1
:10463000284A1378013B137023E772B6FBF7DAFFC1
:1046400015E772B62046FBF7D5FF05E7324E334C2F
:104650003278DFF8D0E02D485EF82270DFF8C880AD
:1046600004EBC20CDCF804100F44CCF8047000EB2F
:10467000C30C3946CCF8041054F8321040F833100B
:1046800048F8227000274EF82270FFF791FCFFF7E0
:1046900065FDFFF7A7FBFFF761FD337854F83300A2
:1046A000FFF722FD0C4B202103F1500203F8011FFC
:1046B0009A42FBD10C490D4B19480024032272E7A2
:1046C00072B6FBF797FFAEE71095FF1F0895FF1F27
:1046D000F8B7FF1F90ADFF1FA3B7FF1F3C86010077
:1046E0004886010028860100A8ADFF1FA9ADFF1F65
:1046F0009C85010062ABFF1F1495FF1F50860100CF
:1047000000860100188601001CACFF1FCCA4FF1F0F
:10471000E48101002086010044B7FF1F64B7FF1F3A
:1047200064860100C8ACFF1F40B8FF1F2DE9F047A9
:10473000934E944D31787378B2780B44D34207D1BD
:104740002A786B7842F0010243F080032A706B7084
:104750008D4C237C012B40F2E48072B68A48E368DA
:1047600062B62C33582B16D9037C012B40F2D5802E
:1047700072B68548E36862B62C2B40F3C080834A4A
:1047800013780133137072B60022E26062B66B7860
:1047900062F3C7136B706B787A4A190648D4717844
:1047A00096F800C096F802E0784F8C440CF10101B5
:1047B000714497F90040C9B243F080038C425370B2
:1047C00004DB641A64B28C42FBDA3C70002CB8BF84
:1047D000E3B205DA0B44DBB25CB2002CFADB3C70CE
:1047E0006B4B202003F1500103F8010F8B42FBD1EA
:1047F000DFF8ACA1DFF8AC91E6444FF00008744557
:104800008AF8008089F8008060DB6248FBF7B4FF1B
:10481000012361488AF8008089F80030FBF7ACFF7B
:1048200003235E488AF8008089F80030FBF7A4FF74
:104830002B785448DA0729D534787278B178224435
:104840006FF300035218037022D0504B93F90030DD
:104850009A426BDC4E4B202103F1500203F8011FFA
:104860009342FBD14E494F4B4F48002403221A700C
:104870000C70FBF781FF6B784C494D4A0C8003F0BC
:10488000EF0364F3C71314216B701180BDE8F08748
:104890003F4B202103F1500203F8011F9A42FBD144
:1048A0003F49404B4348002401221A700C70FBF72B
:1048B00063FF6B783D493E4A0C8003F0EF0364F3DD
:1048C000C7131E216B701180BDE8F0873A48FBF7D3
:1048D00053FF012322463949394889F800308AF8C4
:1048E00000800EF04DFB3648FBF746FF97F900209D
:1048F000344B53F83200FCF76BF933488EE7037CF6
:10490000012B38D972B6E36862B62C33BFF63BAFE1
:104910001E4A1378013B137035E772B6FBF76AFE47
:1049200027E772B62046FBF765FE17E7254A2748BA
:1049300002EBC3010024486042F83340FFF738FB24
:10494000FFF70CFCFFF74EFAFFF708FC204A214B5B
:10495000127853F83200FFF7C7FB0D4B202103F10B
:10496000500203F8011F9A42FBD10D490D4B1A4822
:104970000024032299E772B6FBF73CFEC3E700BFB1
:104980001095FF1F0895FF1FF8B7FF1F2895FF1F01
:10499000A3B7FF1F3C86010048860100288601005E
:1049A000A8ADFF1FA9ADFF1F9C85010062ABFF1FD3
:1049B0001495FF1F508601007886010018860100BB
:1049C0001CACFF1FCCA4FF1FE481010040420F007C
:1049D00044B7FF1F64B7FF1F8C860100F8B53C4C3D
:1049E0003C4A2378D15C012935D96BBB13787BB362
:1049F000591E394F394D3868C9B2013105EBC10133
:104A00002B465A6802445A6008339942F9D1FFF79D
:104A1000A5FB2378304E002247F823207C24204633
:104A200016F8011B013408F0C7FB882CF7D12B4C7A
:104A3000C5F1930504F5C86614F8011B601908F068
:104A4000BBFBB442F8D1F8BD012B2FD0022B18D0FC
:104A5000214F224DDBE722491F4D51F8232055F805
:104A600023400020121B41F8232045F823007C241A
:104A7000204615F8011B013408F09EFB882CF7D165
:104A8000F8BD1178537890780B441844DBB2984203
:104A9000DEDD114F114DBE6805EBC30101334A68DD
:104AA000DBB2324483424A60F6DBB0E713785078D9
:104AB00018448342CCDA084F084D7E6805EBC301E9
:104AC00001334A68DBB2324483424A60F6DB9EE738
:104AD00044B7FF1F1095FF1FC8ACFF1FCCA4FF1FDA
:104AE00040B8FF1F38B51B4C1B4A2378D25C012A03
:104AF00010D91A4D1A4A55F8330052F8331088422B
:104B000004DB184A52F83310884205DD02EBC30378
:104B1000586838BD144838BDFFF7E6FA134B2078C3
:104B20001B78134955F8300051F833205D1E01EB16
:104B3000C50401EBC30351F8355064685968521B32
:104B4000431B081B80FB0301D3170DF05FFA2044C1
:104B500038BD00BF44B7FF1F1095FF1F64B7FF1F8C
:104B6000ACABFF1F24B8FF1F40420F00A6ADFF1FD4
:104B7000CCA4FF1FF8B5854B85481B78C25C012A81
:104B80006FD9002B41D18349834A844D0E6892F935
:104B90000020D5F804E090F800C006FB02F70EFBF9
:104BA00002F18F4205DC0CE0496801FB02F1B942D9
:104BB00059DA0133DCB263B2634505EBC301F3DDBF
:104BC00000237749496801FB02F18F4238DB7549C0
:104BD000496801FB02F297423FDC5A1E05EBC20115
:104BE000D1F804E055F8327005EBC30155F83330C5
:104BF0004A68CEEB0600CEEB0202DB1B83FB000112
:104C0000D3170DF003FA3844F8BD012B2DD0022B39
:104C100065D06048624A50F823605F49DB001A445F
:104C200091F90010526801FB06F002FB01F290427C
:104C300009DA5A4D4FF0FF3255F804EC0023D1E762
:104C400000220123CEE7574A13445B6803FB01F1BE
:104C50008842EEDC0023514DBFE70378013BDBB215
:104C6000BBE70020F8BD2346ABE7017844784BB2A0
:104C70000C44A34276DC484E464A484D96F90070F3
:104C8000566805EBC30207FB06FE526802FB07F2FB
:104C9000964505DC62E0526802FB07F272455DDA78
:104CA00001335BB2A34205EBC302F4DD00233E4AAD
:104CB000526802FB07F2724509DC3C4A526802FB6B
:104CC00007F7774589DA027843781344C6E74B1C27
:104CD000DBB25A1E05EBC201D1F804E082E704788A
:104CE000437882782344D9B29C184BB2A34243DC68
:104CF000294E284A294D96F90070966805EBC302A3
:104D000007FB06FE526802FB07F2964505DC27E02A
:104D1000526802FB07F2724522DA01335BB2A3420A
:104D200005EBC302F4DD0023214A526802FB07F2BF
:104D30007245CCDC1F4A526802FB07F77745BFF685
:104D40004CAF0178427883780A44013A1344DBB2CD
:104D50005A1E05EBC201D1F804E043E7DBB2A6E737
:104D6000DBB2E1E70C4B0B4A93F9007056680B4D30
:104D700007FB06FE00239AE7074B064A93F90070EB
:104D80009668064D07FB06FE0023CDE744B7FF1FDC
:104D90001095FF1F40B8FF1F2888FF1FCCA4FF1FDE
:104DA000ACABFF1F24B8FF1FB4ABFF1F2CB8FF1F15
:104DB000BCABFF1F34B8FF1F2DE9F041804E814D81
:104DC0003278814C55F8320054F83230984205DB85
:104DD0007E4B53F83230984240F388807C4B7D4FB5
:104DE000197841F08001197097F90010012900F03D
:104DF0008880013142D078498A5C012A03D91B8816
:104E000003F428632BB1FFF7B5FE744B1860BDE8BF
:104E1000F081FFF769F93678DFF8A481FFF762FEC9
:104E200097F90020674B05EBC606012A706000F079
:104E3000A0800132E7D198F800206948694950F80C
:104E4000226051F82200D1000B445A683244824259
:104E500007DD0C44626802F21F34A042D3DD941BCC
:104E60005C609042CFDD594B0B445B68A3F21F326C
:104E70009042C8DA0D449E1B6E60C4E7D10004EB7B
:104E8000010CDFF860E1DCF804C05EF822E093F882
:104E90000180E645CCBF48F004086FF3820883F830
:104EA0000180DFF82881414493F8018049688E45EC
:104EB000B4BF48F001086FF3000883F801800CF5D7
:104EC000487CE64593F801C0CCBF4CF0080C6FF36A
:104ED000C30C83F801C0A1F548718E455978B4BF61
:104EE00041F002016FF34101597084E7384B394FAB
:104EF00019786FF3C711197097F9001001297FF421
:104F000078AFD10004EB010CDFF8D8E0DCF804C086
:104F10005EF822E093F80180E645B4BF48F001084E
:104F20006FF3000883F80180DFF8A080414493F814
:104F3000018049688E45CCBF48F004086FF38208B1
:104F400083F80180ACF5487CE64593F801C0B4BF16
:104F50004CF0020C6FF3410C83F801C001F548716D
:104F60008E455978CCBF41F008016FF3C3015970E9
:104F700041E798F800201A481A4950F8226051F881
:104F80002200D1000B445A683244824208DA0C44B1
:104F90006268A2F21F34A042BFF635AF941B5C607A
:104FA0009042BFF630AF094B0B445B6803F21F32EF
:104FB00090427FF728AF6A189E1B566023E700BF18
:104FC00044B7FF1F64B7FF1FACABFF1F24B8FF1F20
:104FD0000895FF1F2888FF1F1095FF1F98B7FF1F18
:104FE000C8ACFF1F40B8FF1F484A494B92F800C0A9
:104FF00053F82C20510740D12DE9F0434548464D48
:10500000037D90F82810C3F3811301295FFA83FE12
:105010005BB246D901EB810404EB8404A600047D55
:1050200004F03004302CB6B242D0202C61D0102CC9
:1050300003BFAEF1020020EAE070C7B20027374894
:10504000DFF8E09000EBCC0859F82C00D8F804C049
:105050006044121A002A01EB8101B8BF5242B2EB40
:10506000410F0DD82E4A00211160D8B200EB071075
:10507000C0B243B22B70BDE8F083274B187870475D
:1050800027480168302C01F10801016012D0202C62
:1050900013D0102CE9D17600B142E6DDB242E4D95A
:1050A00018E0047D04F03004302C4FF0C806BCD169
:1050B0007746C4E7B000814222DC70000644B1426A
:1050C00004DDB24202D90EF1020305E08142CCDDDB
:1050D0008242CAD90EF10103032BC6DDF81CC01AA7
:1050E000C7B23B064FF00300C0D503462B70BDE8A6
:1050F000F0830EF1FF30C7B2FF2F08BF00279EE7F5
:105100008242DAD90EF10303E6E700BF44B7FF1F7E
:1051100040B8FF1F98ACFF1F84ADFF1F64B7FF1F8F
:105120004CB7FF1FC8ACFF1F2DE9F04F6E4A6F4B05
:105130006F4F92F81580B7F900406E4E83B0D3E9F7
:10514000000100226C4B0CF04FF90CF0FDFBA3B2F8
:105150005D1C2DB21F2DC8F3440846F824003D8085
:105160003FDD00253D800F22DFF8C4B1634B56F8C8
:105170002200CBF8000003F18001002453F8042F33
:105180008B4202FB0244F9D1DFF8A891DFF8A8A115
:10519000D9F80030CAF800409C4217DD0CF0BEF888
:1051A000CDE9000108F10A000CF0D0FC54490CF0E4
:1051B000D5FD0CF0C5F800224F4B0CF015F9024656
:1051C0000B46DDE900010CF095FB90B14D4B5B788F
:1051D000DA0700D55DB30020C9F8004003B0BDE890
:1051E000F08FA3F1100212B2002ABCBF10331AB222
:1051F000BAE7444B5B78DB0731D4DDE900010022DC
:105200003D4B414C0CF01AFA404BC3E900010AF047
:1052100077FB00223E4B0CF0E7F80CF0BDFB3D4B5A
:1052200020800120C9F8003003B0BDE8F08F30685D
:105230000CF08CFC38490CF091FD0CF081F8024622
:105240000B46364836490DF09BFE34480DF058FFAA
:105250000146324809F0B8FCDAF80040BBE7DDE966
:1052600000010022244B0CF0E9F90B4602462D49BF
:105270002A480DF085FE29480DF042FF01462748D7
:1052800009F0A2FCB7F90030A3F1200424B234EAFB
:10529000240428BF1C46202556F824000CF03EF8B4
:1052A0000022154B0CF0CAF902460B461B481E495A
:1052B0000DF066FE19480DF023FF0134014624B2BB
:1052C0001648013D09F080FCADB2202CA8BF002497
:1052D000002DE1D1154809F089FEDBF800000CF043
:1052E0001DF8CDE9000188E798ACFF1FE088FF1F9B
:1052F00074ABFF1FD8ACFF1F00005940D4ACFF1F98
:105300000000204164ABFF1FD6ACFF1F88B7FF1F12
:1053100000408F409F8601000000C8421CACFF1F68
:10532000A4860100AC860100C0860100408AFF1FF0
:1053300094ADFF1F0488FF1F48B7FF1F2DE9F04100
:105340004F4B504C93F900004F4F0BF0E7FF0B46CB
:1053500002464FF0804100200AF052FB0CF0F4FAB4
:10536000237813F0010106463BD03D78474B5B782C
:10537000DA070CD4464A4749E800024451F82510A0
:1053800052688A1A002AB8BF524296420ADD424A3F
:10539000207852F825301E44C0F3410042F82560C1
:1053A000BDE8F08103F00403002B47D13B4BDFF84D
:1053B000E880034458F825205B681344CB1A002B7F
:1053C000B8BF5B429E4242DD354B1B680A2B26DC90
:1053D000237803F0FE0343F0060323700320BDE8A7
:1053E000F081DFF8B4E03D782E485EF8252043F0E8
:1053F000010361F34203A2F5C86261F3C3034EF8EF
:10540000252002782370284B61F386122749027009
:1054100003F1800243F8041F9A42FBD1A6E7FFF78D
:1054200083FEC8B93978224A58F8213012681E44E0
:1054300002F23F639E4248F8216008DD2378022093
:1054400003F0FE0360F342032370BDE8F08120788F
:10545000C0F34100BDE8F0813D78227858F825106E
:10546000C6EB0673C6EB0316012002F0FE028B1991
:1054700060F3420248F825302270BDE8F08100BF99
:105480003CB7FF1F70ABFF1F44B7FF1F0895FF1FFE
:10549000ACABFF1F40B8FF1FC8ACFF1F64B7FF1FB6
:1054A00074ACFF1F70ACFF1FD4ACFF1F9F860100C0
:1054B000A0B7FF1FF8B5424B424E93F900000BF026
:1054C0002DFF02460B4600204FF080410AF098FA6B
:1054D00032780D4612F00101044613D13A483B4B95
:1054E000077842F0010261F3420261F3C30261F303
:1054F000861737493270077003F1800243F8041FA2
:105500009342FBD1334B5B7803F004039BB92046F5
:1055100029460CF019FA304F304A314B044638789E
:10552000C1000A4453F8203052689A1A002AB8BFC2
:105530005242944207DD3378022003F0FE0360F309
:1055400042033370F8BD274A274D114455F82020F7
:1055500049680A449B1A002BB8BF5B429C420BDD92
:10556000224B1B680A2B0BDC337803F0FE0343F05D
:10557000060333700320F8BD3078C0F34100F8BD56
:10558000FFF7D2FD48B93A78307855F822302344F5
:10559000C0F3410045F82230F8BD3F78327855F825
:1055A0002710C4EB0473C4EB0314012002F0FE02C5
:1055B0000B1960F3420245F827303270F8BD00BF86
:1055C0003CB7FF1F70ABFF1F70ACFF1FD4ACFF1FB9
:1055D0009F8601000895FF1F44B7FF1F24B8FF1FD7
:1055E00040B8FF1F64B7FF1FC8ACFF1F74ACFF1F9C
:1055F0002DE9F041464B474E93F900000BF08EFE2B
:1056000002460B4600204FF080410AF0F9F932784B
:105610000D4612F00101044613D13F483F4B077875
:1056200042F0010261F3420261F3C30261F38617A3
:105630003B493270077003F1800243F8041F934224
:10564000FBD1384B5F7817F0010715D1204629466A
:105650000CF07AF9DFF8E480334A344B044698F8CA
:105660000000C1000A4453F8203052689A1A002AF8
:10567000B8BF5242944208DD3378022003F0FE03A3
:1056800060F342033370BDE8F081294A294D11448B
:1056900055F8202049680A449B1A002BB8BF5B428A
:1056A0009C420DDD244B1B680A2B0EDC337867F31C
:1056B0000003DBB243F0060333700320BDE8F08142
:1056C0003078C0F34100BDE8F081FFF72DFD58B9F7
:1056D00098F80020307855F822301B1BC0F34100A9
:1056E00045F82230BDE8F08198F800E0337855F8AD
:1056F0002E20C4EB047167F30003C4EB01140120F6
:10570000224460F3420345F82E203370BDE8F08157
:105710003CB7FF1F70ABFF1F70ACFF1FD4ACFF1F67
:105720009F8601000895FF1FACABFF1F40B8FF1F0D
:1057300064B7FF1FC8ACFF1F74ACFF1F44B7FF1F47
:1057400038B5134C6378DA06054618D49B0615D590
:10575000002409E0EA5C0DF013FC0E480DF0D0FCCB
:1057600001460C4809F030FA28460DF0C9FCE3B2B6
:1057700083420949074804F10104EBD338BD0DF019
:10578000BFFC0146284609F01FFA6378DEE700BF38
:1057900070ACFF1F1CACFF1FC886010038B50D4C54
:1057A0006378DA06054610D49B0600D438BD2A4635
:1057B00009490A480DF0E4FB08480DF0A1FCBDE8DA
:1057C00038400146054809F0FFB909F081FA6378CD
:1057D000EAE700BF70ACFF1FC88601001CACFF1FCA
:1057E0001A4B5B785B062ED5194A1A49937DC3F391
:1057F000C103063312F8233003F01F0331F81330CE
:1058000013B32DE9F0410746134EDFF8548000240E
:105810000DE030787A5D08EB40000DF0B1FB337895
:105820000133DBB2092B88BF0A23337001343846B9
:105830000DF066FCE5B2A8420849EAD80848BDE880
:10584000F041FAF7F7BF7047FAF7F4BF70ACFF1FEB
:1058500098ACFF1F1080010091ADFF1FD0860100A2
:105860000CABFF1F38B5174B5B785B0618D5164A93
:105870001649937DC3F3C103063312F8233003F0B6
:105880001F0331F8132062B91149124C0D786B1CBB
:10589000DBB2132B0B706055E25484BF14230B70E2
:1058A00038BD0B4C0C49257802460A4800EB4500F0
:1058B0000DF066FB23780133DBB2092B88BF0A2386
:1058C000237038BD70ACFF1F98ACFF1F1080010023
:1058D00091ADFF1F0CABFF1FD086010010B5044631
:1058E0000DF00EFC0146204608F0E6F82046FFF7D2
:1058F00027FF064B5B7813F0300F01D0FAF7B6FDA7
:105900002046BDE81040FFF76BBF00BF70ACFF1F23
:1059100010B5044608F0C6F82046FFF73FFF2046C2
:10592000BDE81040FFF79EBF38B505460B4C08F0A8
:10593000B9F82846FFF732FF637813F0300F0AD129
:105940002846FFF78FFF63785B0600D438BDBDE8BB
:105950003840FAF79BBFFAF789FDF1E770ACFF1FFB
:10596000F8B50B4C0B4E274609E025886B1C2380AD
:1059700008F016F923887055B3F5006F04D008F0CD
:10598000FFF80028F1DCF8BD00233B80F7E700BFFB
:105990003EB7FF1F3CAFFF1F144A154811884B1C30
:1059A0009BB2B3F5006F10B5138004BF00231380C2
:1059B000104B445C1B789A07204608D40E4B9A7D06
:1059C000C2F3C10203EB82035B7E9B0706D4FFF7A1
:1059D000E5FE2046FFF746FF204610BD09F078F9A6
:1059E0002046FFF73FFF204610BD00BF9EADFF1FC2
:1059F0003CAFFF1FF094FF1F98ACFF1F194A1A48D5
:105A0000118838B54B1C9BB2B3F5006F138004BFEF
:105A100000231380154B445C1B78990708D4144B62
:105A20009A7DC2F3C10203EB82035B7E9A0714D412
:105A3000104D2046FFF7B2FE6B7813F0300F09D1FE
:105A40002046FFF70FFF6B785B0601D5FAF71EFFC4
:105A5000204638BDFAF70AFDF2E7204609F038F98A
:105A6000044DEDE79EADFF1F3CAFFF1FF094FF1FFD
:105A700098ACFF1F70ACFF1F2DE9F0412C4F2D4E4D
:105A8000B846002408F07CF8002801DD1CB1012490
:105A90002046BDE8F0813D88FE2D03D9A8F80040DE
:105AA0003470EFE708F07CF8234BB8F800201B783F
:105AB0007055B1189B074C70204D1E4907D4AB7D23
:105AC000C3F3C10305EB83035B7E980722D4B05C6C
:105AD000FFF764FE3B88F05CFFF7C4FEAB7D18481F
